:100000000C945E000C94A0040C94CD040C94860017
:100010000C9486000C9486000C9486000C94860048
:100020000C9486000C9486000C9486000C94860038
:100030000C9486000C9486000C9486000C94860028
:100040000C94FA040C9486000C9475060C94B1067A
:100050000C9486000C9486000C9486000C94860008
:100060000C9486000C94860000000007000201003A
:100070000003040600000000000000000102040864
:100080001020408001020408102001020408102002
:10009000040404040404040402020202020203032E
:1000A0000303030300000000250028002B000000CC
:1000B0000000240027002A006C04660711241FBEDC
:1000C000CFEFD8E0DEBFCDBF13E0A0E0B1E0E2E2C9
:1000D000FBE102C005900D92AC36B107D9F714E0F0
:1000E000ACE6B3E001C01D92AD33B107E1F710E01B
:1000F000CCEBD0E004C02297FE010E948B0DC83BE0
:10010000D107C9F70E94B6070C944E0D0C9400005D
:1001100081E080936C030895CF92DF92EF92FF927B
:100120000F931F93CF93DF93CDB7DEB7C054D109A0
:100130000FB6F894DEBF0FBECDBF40E056E960E0D9
:1001400070E085E993E00E94EC0664E071E085E9E7
:1001500093E00E941A0880E484B987EB80936D03D2
:1001600082E7E82E83E0F82E670100E010E0B80196
:100170008CE394E00E941C09F60181936F010F5FEC
:100180001F4F0A30110599F764E171E085E993E0AA
:100190000E94FB07F70161917F014AE050E085E989
:1001A00093E00E949708FCE7EF16F3E0FF0691F753
:1001B00085E993E00E94040868EB7BE080E090E032
:1001C0000E946E0580E893E00E94B90B62E080E82F
:1001D00093E00E944A0A44E067E080E893E00E94CE
:1001E000270980EC809382036FE171E085E993E059
:1001F0000E94FB0740EC60E380E893E00E947B09EB
:100200004AE050E0682F85E993E00E949E086FE283
:1002100071E085E993E00E94FB0740EC61E380E830
:1002200093E00E947B094AE050E0682F85E993E063
:100230000E949E086FE371E085E993E00E94FB074E
:1002400040EC65E380E893E00E947B09682F6F71C2
:100250004AE050E070E085E993E00E94020947E43B
:1002600064E080E893E00E94270940E065E080E8D0
:1002700093E00E94270940E069E080E893E00E9453
:10028000270943E06AE080E893E00E94270920E420
:1002900040E0BE016F5F7F4F80E893E00E949109CC
:1002A0008E010F5F1F4F7E0181E4E80EF11C09C033
:1002B000F80161918F0140E150E085E993E00E94EF
:1002C0009E080E151F05A1F742E050E068E870E0B7
:1002D00080E00E94700461E571E085E993E00E948E
:1002E0001A08C05CDF4F0FB6F894DEBF0FBECDBF5B
:1002F000DF91CF911F910F91FF90EF90DF90CF9002
:100300000895CF9340EC63E380E893E00E947B097B
:10031000C82F64E671E085E993E00E94FB076C2F2B
:1003200060956F734AE050E085E993E00E9497087A
:100330006AE671E085E993E0CF910C941A08CF93B7
:1003400040EC64E380E893E00E947B09C82F87FDBE
:10035000C095C695C65B6CE671E085E993E00E94A6
:10036000FB074AE050E06C2F85E993E00E94970874
:1003700063E771E085E993E0CF910C941A08CF927E
:10038000DF92EF92FF920F931F93CF93DF93CDB73E
:10039000DEB7C154D1090FB6F894DEBF0FBECDBF92
:1003A000FB01B70156E15983C0907C03D0907D03D7
:1003B000E0907E03F0907F035FEFC51AD50AE50A4F
:1003C000F50AC0927C03D0927D03E0927E03F09206
:1003D0007F036C01CE0102967E01A6E0EA0EF11CBD
:1003E000D6015D916D01DC015D93CD01AE15BF05B8
:1003F000B9F780818E8381818F8382818887838111
:1004000089874A87F90180818B8781818C878281E6
:100410008D87F801DE011E9681E090E08C0F9D1F14
:10042000459621912D93A817B907D9F7DB018C9137
:100430008E8B11968C918F8B6FE371E085E993E041
:100440000E94FB0740EC65E380E893E00E947B0993
:10045000682F6F714AE050E070E085E993E00E94F8
:100460000209EDB7FEB7E154F1090FB6F894FEBFEB
:100470000FBEEDBFADB7BEB7119681E4FE01319658
:1004800001900D928A95E1F780E893E00E94CC0BF1
:100490000FB6F894DEBF0FBECDBF882319F069E90F
:1004A00071E002C065EA71E085E993E0CF5BDF4F60
:1004B0000FB6F894DEBF0FBECDBFDF91CF911F9175
:1004C0000F91FF90EF90DF90CF900C941A086F92ED
:1004D0007F928F929F92AF92BF92CF92DF92EF92D4
:1004E000FF920F931F93CF93DF9300D0CDB7DEB76A
:1004F0006C014B01F42E390158018FEF89838A83F7
:100500000E949F010E94810163EC71E085E993E004
:100510000E941A0840E150E0F601608185E993E00D
:100520000E94970861EE71E085E993E00E94FB0765
:1005300040E150E0F601618185E993E00E9497086F
:1005400061EE71E085E993E00E94FB0740E150E035
:10055000F601628185E993E00E94970861EE71E0FF
:1005600085E993E00E94FB0740E150E0F6016381DA
:1005700085E993E00E949E08FAEBFF16C1F18CEC2E
:10058000F81609F49EC0EAEAFE12A9C063EE71E013
:1005900085E993E00E941A0868EE73E080E090E03D
:1005A0000E946E05EE24E394F12CEC0EFD1E8301F7
:1005B00095014AEAB401C6010E94BF0182E090E0C1
:1005C000909371038093700361E072E085E993E09A
:1005D0000E941A08F501808180936D0381818093C8
:1005E0006E03828180936F0380E485B978C0809127
:1005F000700390917103029739F461E272E085E92A
:1006000093E00E941A085DC061E372E085E993E01F
:100610000E941A0868E472E085E993E00E94FB07F3
:1006200040E150E0F601608185E993E00E9497087F
:1006300061EE71E085E993E00E94FB0740E150E044
:10064000F601618185E993E00E94970861EE71E00F
:1006500085E993E00E94FB0740E150E0F6016281EA
:1006600085E993E00E94970861EE71E085E993E0E7
:100670000E94FB0740E150E0F601638185E993E0C9
:100680000E949E0869E672E085E993E00E941A08DC
:1006900081E090E0909371038093700368EE73E0C3
:1006A00080E090E00E946E05EE24E394F12CEC0EC5
:1006B000FD1E830195014FECB401C6010E94BF01EC
:1006C0000EC0FDE6AF16F3E0BF0619F466E872E06F
:1006D00002C06BEA72E085E993E00E941A0880E0AC
:1006E00090E00F900F90DF91CF911F910F91FF90AD
:1006F000EF90DF90CF90BF90AF909F908F907F90C2
:100700006F9008950F931F93CF93DF93CDB7DEB70C
:10071000CF54D1090FB6F894DEBF0FBECDBF809184
:100720006C03882309F4C4C080E00E9490041092F6
:100730006C03BE016F5F7F4F80E893E00E94400C26
:10074000882309F4A8C062ED72E085E993E00E9475
:100750001A088FAD81110AC061EF72E085E993E05C
:100760000E941A0810927103109270038E812796CE
:100770008FAF27978F8128968FAF289788852996E6
:100780008FAF299789852A968FAF2A978B852E96CA
:100790008FAF2E979C852F969FAF2F979D85609644
:1007A0009FAF60979A819F3F01F52B812F3FE9F41E
:1007B0002C812F3FD1F42D812F3FB9F489818823DB
:1007C00009F46FC06CEF72E085E993E00E941A08AB
:1007D0008E01035B1F4F9E012E5F3F4F4A8560E0F5
:1007E00071E0CE018A5B9F4F50C0209100019213AF
:1007F00058C02B8190910101291353C02C819091F5
:10080000020129134EC02D8190910301291349C083
:10081000873BF1F567E173E085E993E00E941A08F0
:1008200060917003709171034AE050E085E993E0B4
:100830000E94020989818823A1F18E8123968FAFBE
:1008400023978F8124968FAF2497888525968FAF25
:100850002597898526968FAF26978B852B968FAF08
:100860002B978C852C968FAF2C978D852D968FAFDF
:100870002D978E01065B1F4F9E012E5F3F4F4A85CD
:1008800060E071E0CE018E5B9F4F0E94670209C05D
:100890006FE273E002C066E473E085E993E00E94D2
:1008A0001A0842E050E068E870E080E00E947004BE
:1008B000C15BDF4F0FB6F894DEBF0FBECDBFDF9137
:1008C000CF911F910F9108950E94820368EC70E010
:1008D00080E090E00C946E0580E893E00C9423098E
:1008E0008230E8F4E82FF0E0EE0FFF1FE857FC4FEE
:1008F00071836083813041F0809169008C7F842B0B
:1009000080936900E89A089580916900440F551F0B
:10091000440F551F837F842B80936900E99A0895C3
:10092000823068F4813011F0E89801C0E998E82F2E
:10093000F0E0EE0FFF1FE857FC4F11821082089580
:100940001F920F920FB60F9211242F933F934F9344
:100950005F936F937F938F939F93AF93BF93EF9327
:10096000FF938091880390918903892B29F0E0916E
:100970008803F09189030995FF91EF91BF91AF91A1
:100980009F918F917F916F915F914F913F912F91A7
:100990000F900FBE0F901F9018951F920F920FB6D9
:1009A0000F9211242F933F934F935F936F937F93F5
:1009B0008F939F93AF93BF93EF93FF9380918A039D
:1009C00090918B03892B29F0E0918A03F0918B039E
:1009D0000995FF91EF91BF91AF919F918F917F9179
:1009E0006F915F914F913F912F910F900FBE0F909C
:1009F0001F9018951F920F920FB60F9211242F93EC
:100A00003F938F939F93AF93BF9380918C0390916B
:100A10008D03A0918E03B0918F0330919403232F07
:100A20002A5F2D3720F40296A11DB11D05C0232F8A
:100A300027570396A11DB11D2093940380938C0327
:100A400090938D03A0938E03B0938F0380919003B6
:100A500090919103A0919203B09193030196A11DEF
:100A6000B11D8093900390939103A0939203B09350
:100A70009303BF91AF919F918F913F912F910F90D1
:100A80000FBE0F901F9018950F931F939FB7F89468
:100A90000091900310919103209192033091930360
:100AA00086B5A89B06C08F3F21F00F5F1F4F2F4FC9
:100AB0003F4F9FBF322F212F102F0027080F111DEE
:100AC000211D311D43E0000F111F221F331F4A95C6
:100AD000D1F7B801C9011F910F910895CF92DF920C
:100AE000EF92FF92CF93DF936B017C010E9444054C
:100AF000EB010EC00E9444056C1B7D0B683E7340E9
:100B000038F081E0C81AD108E108F108C851DC4F7B
:100B1000C114D104E104F10469F7DF91CF91FF9092
:100B2000EF90DF90CF900895019739F0019729F069
:100B3000880F991F01970197F1F70895789484B56C
:100B4000826084BD84B5816084BD85B5826085BDC9
:100B500085B5816085BDEEE6F0E0808181608083AF
:100B6000E1E8F0E010828081826080838081816092
:100B70008083E0E8F0E0808181608083E1EBF0E059
:100B8000808184608083E0EBF0E0808181608083FD
:100B9000EAE7F0E0808184608083808182608083E6
:100BA0008081816080838081806880831092C10011
:100BB0000895FC0184859585FC01E05CFF4F208150
:100BC0003181FC01EE5BFF4F80819181281B390B45
:100BD0002F733327C9010895FC0184859585FC0195
:100BE000E05CFF4F40815181FC01EE5BFF4F2081B3
:100BF00031814217530741F00190F081E02DE80F59
:100C0000F91F208130E002C02FEF3FEFC9010895A6
:100C1000FC0184859585FC01E05CFF4F408151819A
:100C2000FC01EE5BFF4F208131814217530781F0B9
:100C3000A081B181A80FB91F8C91208131812F5FD4
:100C40003F4F2F73332731832083282F30E002C09A
:100C50002FEF3FEFC9010895FC0186859785FC01C0
:100C6000E05CFF4FDC01AE5BBF4F408151812D91B5
:100C70003C91119742175307C1F70895CF93DF9323
:100C8000FC0186859785DC01A05CBF4F2D913C91CE
:100C900011972F5F3F4F2F733327EC01CE5BDF4F50
:100CA0004881598124173507D9F30D90BC91A02DA7
:100CB000A80FB91F6C93A685B785A05CBF4F11968E
:100CC0003C932E93A689B7892C9181E090E0058C06
:100CD00002C0880F991F0A94E2F7282B2C9381E019
:100CE00090E0DF91CF91089508951F920F920FB673
:100CF0000F9211242F933F934F938F939F93EF93D2
:100D0000FF934091C6008091380490913904019678
:100D10008F73992720913A0430913B0482179307EF
:100D200059F0E0913804F0913904E850FC4F4083C9
:100D30009093390480933804FF91EF919F918F91A4
:100D40004F913F912F910F900FBE0F901F901895CC
:100D500085E993E00E94D905892B11F00C94740663
:100D600008951F920F920FB60F9211242F933F9365
:100D70008F939F93EF93FF932091F4033091F503AA
:100D80008091F6039091F7032817390731F4809189
:100D9000C1008F7D8093C10014C0E091F603F091F3
:100DA000F703EC54FC4F20818091F6039091F703F8
:100DB00001968F7399279093F7038093F6032093FE
:100DC000C600FF91EF919F918F913F912F910F90CE
:100DD0000FBE0F901F901895CF92DF92EF92FF9267
:100DE000CF93DF93EC016A017B01EC89FD8981E0FF
:100DF00090E00E8C02C0880F991F0A94E2F780835E
:100E000060E874E88EE190E0A70196010E94670D0A
:100E10002150310941095109569547953795279534
:100E2000211580E1380798F0EC89FD89108260E493
:100E300072E48FE090E0A70196010E94670D2150B7
:100E40003109410951095695479537952795E88904
:100E5000F9893083EA89FB892083EE89FF89408103
:100E600081E090E09C010A8C02C0220F331F0A949B
:100E7000E2F7422B4083EE89FF8940819C010B8C75
:100E800002C0220F331F0A94E2F7422B4083EE89FF
:100E9000FF8940819C010C8C02C0220F331F0A94F1
:100EA000E2F7422B4083EE89FF8920810D8C02C03E
:100EB000880F991F0A94E2F7809582238083DF913F
:100EC000CF91FF90EF90DF90CF900895109298030C
:100ED0001092970388EE93E0A0E0B0E0809399032E
:100EE00090939A03A0939B03B0939C038FE593E0A8
:100EF000909396038093950388EF93E09093A203D9
:100F00008093A10384EB93E09093A4038093A303C5
:100F100085EC90E09093A6038093A50384EC90E089
:100F20009093A8038093A70380EC90E09093AA038A
:100F30008093A90381EC90E09093AC038093AB0382
:100F400086EC90E09093AE038093AD0384E08093B1
:100F5000AF0383E08093B00387E08093B10385E023
:100F60008093B20381E08093B30308950E949E05AD
:100F70000E948C00C8EAD6E00E9464042097E1F346
:100F80000E94A806F9CFCF92DF92EF92FF920F93C3
:100F90001F93CF93DF936C01EB017A01E60EF71EEE
:100FA00000E010E00BC06991D601ED91FC91019039
:100FB000F081E02DC6010995080F191FCE15DF0538
:100FC00091F7C801DF91CF911F910F91FF90EF90A2
:100FD000DF90CF900895DB010D900020E9F7AD017F
:100FE00041505109461B570BDC01ED91FC910280E9
:100FF000F381E02D09940C94EB07DC01ED91FC9159
:101000000190F081E02D09940F931F93CF93DF930C
:10101000EC016DE00E94FD078C016AE0CE010E94A8
:10102000FD079C01200F311FC901DF91CF911F9156
:101030000F9108950F931F93CF93DF93EC010E94BC
:10104000EB078C01CE010E9404089801280F391F7C
:10105000C901DF91CF911F910F9108954F925F9237
:101060006F927F929F92AF92BF92CF92DF92EF9258
:10107000FF920F931F93CF93DF93CDB7DEB7A19766
:101080000FB6F894DEBF0FBECDBF5C016A017B01D5
:10109000922E19A281E0821710F08AE0982E8E011C
:1010A0000F5D1F4F492C512C612C712CC701B601CB
:1010B000A30192010E94670D8C2D929E801911242C
:1010C000015011098A3014F4805D01C0895CF80177
:1010D000808369017A01C114D104E104F10431F77C
:1010E000B801C5010E94EB07A1960FB6F894DEBFC8
:1010F0000FBECDBFDF91CF911F910F91FF90EF9069
:10110000DF90CF90BF90AF909F907F906F905F9057
:101110004F9008952115310541F4DC01ED91FC91CA
:101120000190F081E02D642F09940C942E089A010F
:10113000462F50E060E070E00C948A080F931F93F4
:10114000CF93DF93EC019A01462F50E060E070E00E
:101150000E948A088C01CE010E9404089801280F81
:10116000391FC901DF91CF911F910F910895CF923F
:10117000DF92EF92FF920F931F93CF93DF93EC01D7
:101180006A017B012115310579F4E881F98101902B
:10119000F081E02D642FDF91CF911F910F91FF908F
:1011A000EF90DF90CF9009942A30310519F477FD44
:1011B0000EC02AE0B701A601CE01DF91CF911F91A9
:1011C0000F91FF90EF90DF90CF900C942E086DE27E
:1011D0000E94FD078C0144275527BA014C195D096F
:1011E0006E097F092AE0CE010E942E08080F191F00
:1011F000C801DF91CF911F910F91FF90EF90DF9089
:10120000CF9008950F931F93CF93DF93EC019A0132
:10121000AB01662757FD6095762F0E94B7088C01B9
:10122000CE010E9404089801280F391FC901DF91DF
:10123000CF911F910F910895CB010C94510DCB01CB
:10124000642F0C94590D20E6FC01228308950F931E
:101250001F93CF93DF931F92CDB7DEB78C012A98EF
:101260001C99FECFC80149830E94AF0C4981642FAD
:10127000C8010E94AF0C2A9A0F90DF91CF911F9165
:101280000F910895CF92DF92EF92FF920F931F93E9
:10129000CF93DF931F92CDB7DEB7182F092FF42E0F
:1012A000E22E60642A981C99FECF812F902F5983DB
:1012B0000E94AF0CCF2C5981D52E07C0F601619149
:1012C0006F01812F902F0E94AF0C8C2D8F198E15DE
:1012D000A8F32A9A0F90DF91CF911F910F91FF9061
:1012E000EF90DF90CF9008952A981C99FECF0E942E
:1012F000AF0C2A9A0895CF93DF93D82FC92F462B8E
:101300002A981C99FECF642F8D2F9C2F0E94AF0C22
:1013100060E08D2F9C2F0E94AF0C2A9ADF91CF9115
:101320000895CF92DF92EF92FF920F931F93CF9386
:10133000DF931F92CDB7DEB7082FF92E162FE22EBE
:10134000406C2A981C99FECF642F802F9F2D7983A3
:101350000E94AF0CC12E7981D72E08C060E0802F8B
:101360009F2D0E94AF0CF60181936F018C2D811B84
:101370008E15A0F32A9A0F90DF91CF911F910F91B4
:10138000FF90EF90DF90CF900895EF92FF920F9330
:101390001F93CF93DF931F92CDB7DEB77C01062F4B
:1013A000142FFC018581861303C08681841731F1D7
:1013B000402F64E0C70129830E942709412F65E07F
:1013C000C7010E942709F70105831683298122237B
:1013D000A9F0402F62E070E08CE394E00E941F09C6
:1013E000412F63E070E08CE394E00F90DF91CF91A8
:1013F0001F910F91FF90EF900C941F090F90DF91B8
:10140000CF911F910F91FF90EF9008950F931F932D
:10141000CF93DF93EC01162F042F8F81861799F05D
:10142000462F69E0CE010E9427091F83002359F04F
:10143000412F64E070E08CE394E0DF91CF911F9145
:101440000F910C941F09DF91CF911F910F91089577
:101450000F931F93CF93DF93EC01162F042F8C81F2
:10146000861799F0462F6AE0CE010E9427091C8357
:10147000002359F0412F60E070E08CE394E0DF91AD
:10148000CF911F910F910C941F09DF91CF911F9164
:101490000F9108951F93CF93DF93EC01162F6130C6
:1014A00019F0623079F402C042E201C040E16DE01F
:1014B000CE010E94270941EB6EE0CE010E94270970
:1014C0004BE30AC041E26DE00E94270942E66EE06C
:1014D000CE010E94270946E76FE0CE010E9427094E
:1014E0001B83DF91CF911F910895CF93DF93EC0180
:1014F0004EE260E00E9427094EE261E0CE010E94C8
:10150000270946E062E0CE010E94270947E063E038
:10151000CE010E9427094DE366E0CE010E94270913
:1015200044E067E0CE010E94270945E068E0CE0173
:101530000E94270920E047E465EBCE010E94C5091F
:1015400040E060E0CE010E94060A40E060E0CE018B
:101550000E94280A46E06BE0CE010E94270940E085
:101560006CE0CE010E94270960E0CE010E944A0A89
:101570004AEC60E1CE010E94270943E861E1CE0117
:101580000E94270943E162E1CE010E94270942E25D
:1015900063E1CE010E94270948EF64E1CE010E9479
:1015A000270945E365E1CE010E94270947E066E18E
:1015B000CE010E94270940E367E1CE010E9427097E
:1015C00048E168E1CE010E94270946E169E1CE01C8
:1015D0000E9427094CE66AE1CE010E94270943E4F4
:1015E0006BE1CE010E94270940E46CE1CE010E942C
:1015F000270941E96DE1CE010E94270947E86EE124
:10160000CE010E9427094BE66FE1CE010E94270917
:101610004BEF60E2CE010E94270946E561E2CE0170
:101620000E94270940E162E2CE010E94270949EEAB
:1016300063E2CE010E9427094AE264E2CE010E94E1
:10164000270940E065E2CE010E9427094FE166E2EA
:10165000CE010E94270941E467E2CE010E942709DA
:1016600040E068E2CE010E94270949E569E2CE0127
:101670000E9427094FE76AE2CE010E9427094FE343
:101680006BE2CE010E94270941E86CE2CE010E9484
:10169000270945E36DE2CE010E94270949E06EE289
:1016A000CE01DF91CF910C9427091F93CF93DF9345
:1016B000EC0160E070E08CE394E00E941C098A3049
:1016C00028F440E0682FCE010E94280A62E070E012
:1016D0008CE394E00E941C09182F63E070E08CE317
:1016E00094E00E941C09912F91509E3F20F0982F6A
:1016F00091509E3F30F420E0482F612FCE010E9490
:10170000C50964E070E08CE394E00E941C09882322
:1017100041F040E0682FCE01DF91CF911F910C94F2
:10172000060ADF91CF911F910895CF93DF93EC01CB
:101730002A9A85E090E00E9494052A988AE090E039
:101740000E9494052A9A89E290E00E9494052A98C2
:101750001C99FECF60E3CE010E94AF0C1C99FECF16
:101760002A9ACE010E94750ACE01DF91CF910C9486
:10177000550BCF93DF93EC010E94900C60E082E068
:101780000E94DF0CCE010E94950B4A816EE3CE01D0
:10179000DF91CF910C942709EF92FF920F931F9343
:1017A000CF93DF93CDB7DEB78C0182E0F801818360
:1017B00064E303C0813121F46AE3C8010E94740923
:1017C00040EC65E3C8010E947B09982F9F719D3012
:1017D00089F78CED95E00E94940589E0E82EF12CC4
:1017E000EC0EFD1EF70141917F016FE3C8010E94DD
:1017F00027092985A7016FE3C8010E94420965E313
:10180000C8010E94740940EC65E3C8010E947B098D
:101810008F718351833080F066E3C8010E947409A0
:101820006BE3C8010E94740964E3C8010E94740953
:1018300081E0F80181831CC04A9BFECF4A99FECF0C
:1018400040EC6AE3C8010E947B09F82E66E3C801F8
:101850000E9474096BE3C8010E94740964E3C80123
:101860000E94740981E0F80181839F2D9F7709F020
:1018700080E0DF91CF911F910F91FF90EF9008953D
:10188000FF920F931F93CF93DF938C01EB0140ECFA
:101890006BE30E947B09F82E8CED95E00E94940585
:1018A0008F2D8F7749F1F7FC27C040E86FE3C8011F
:1018B0000E947B0988838E3308F01EC0BE016F5FD3
:1018C0007F4F282F4FE3C8010E94910940E86FE342
:1018D000C8010E947B098FAF40E86FE3C8010E94F6
:1018E0007B09FE01E05CFF4F982F9F779083881F54
:1018F0008827881F8EAF01C0188266E3C8010E9446
:1019000074096AE3C8010E94740964E3C8010E9473
:1019100074098881DF91CF911F910F91FF900895F5
:1019200061E08AE00E94170D61E08AE00E94DF0C0E
:1019300061E08BE00E94DF0C60E08CE00E94DF0C35
:1019400061E08DE00E94DF0C61E08DE00E94170DE8
:1019500060E08BE00E94170D80E58CBD08956EBDA0
:101960000DB407FEFDCF8EB50895833069F028F4DD
:101970008130A1F0823011F514C08630B1F087308B
:10198000C1F08430D9F404C0809180008F7703C007
:10199000809180008F7D80938000089584B58F773B
:1019A00002C084B58F7D84BD08958091B0008F778B
:1019B00003C08091B0008F7D8093B0000895CF93D5
:1019C000DF9390E0FC01E458FF4F4491FC01E057A5
:1019D000FF4F8491882341F190E0880F991FFC010B
:1019E000E255FF4F25913491D9018C559F4FFC0151
:1019F00085919491C82FD92F9FB7F8948C9161113C
:101A000006C0409584238C938881842308C062306B
:101A100041F4242F209582238C938881842B888302
:101A200002C0842B8C939FBFDF91CF9108950F93B9
:101A30001F93CF93DF931F92CDB7DEB7282F30E0EF
:101A4000F901E859FF4F8491F901E458FF4F1491CF
:101A5000F901E057FF4F04910023D1F0882321F0D2
:101A600069830E94B50C6981E02FF0E0EE0FFF1F43
:101A7000EC55FF4F85919491DC019FB7F8948C91C0
:101A8000611103C01095812301C0812B8C939FBFEE
:101A90000F90DF91CF911F910F910895F8940C94BE
:101AA0008F0DF999FECF92BD81BDF89A992780B527
:101AB0000895262FF999FECF1FBA92BD81BD20BD92
:101AC0000FB6F894FA9AF99A0FBE01960895A1E21A
:101AD0001A2EAA1BBB1BFD010DC0AA1FBB1FEE1FA8
:101AE000FF1FA217B307E407F50720F0A21BB30BF3
:101AF000E40BF50B661F771F881F991F1A9469F76F
:101B000060957095809590959B01AC01BD01CF01CA
:101B10000895EE0FFF1F0590F491E02D0994F894BD
:021B2000FFCFF5
:101B220030303031737461727420616E6420686584
:101B32006C6C6F0053657269616C4E523A200043BF
:101B420043313130315F504152544E554D200043A4
:101B520043313130315F56455253494F4E20004395
:101B620043313130315F4D4152435354415445204A
:101B72000064657669636520696E697469616C6980
:101B82007A6564004C51693A20002500525353494A
:101B92003A2000206462690053656E64696E6720B2
:101BA2004346207061636B657420746F3A20005362
:101BB200796E634B45593A20002073656E74206F2D
:101BC2006B203A290073656E74206661696C6564E6
:101BD200203A2800536179206869206F6E2061697C
:101BE200722E0049206469642072756E2C20627521
:101BF200742064696420736F6D657468696E67210F
:101C0200003A00436F6E6669726D6174696F6E208F
:101C12007061636B65742072656369657665642EB5
:101C2200004C696E6B2065737461626C69736865E0
:101C3200642E204465766963652072656164792E3D
:101C420000416C72656164792073796E6365642EFC
:101C5200005265706C79696E6720746F2042524F32
:101C62004144434153542E0057696C6C206E6F7788
:101C7200206F6E6C79206C697374656E20746F20AE
:101C82006D61737465723A200053656E64696E67A4
:101C920020636F6E6669726D6174696F6E20706128
:101CA200636B65742E00436F6D6D616E64206465B5
:101CB20074656374656420776974682076616C6901
:101CC200642073796E636B65792100436F6D6D617A
:101CD2006E642064657465637465642077697468F2
:101CE20020696E76616C69642073796E636B6579C5
:101CF20021005061636B6574207265636965766566
:101D0200642E20497320697420666F722075733FB8
:101D120000637263206E6F74206F6B00446574659C
:101D2200637465642042524F4144434153542070CE
:101D320061636B65742E0044657465637465642029
:101D42007369676E6564207061636B65742E0053FE
:101D5200796E4B6579206E6F74207265636F676E62
:101D6200697A65642100496E76616C6964206461F8
:101D72007461206F6E206169722E00000000003EC7
:0C1D820006C307D9050806EC052C060076
:00000001FF
