:100000000C945E000C9429020C9456020C94860009
:100010000C9486000C9486000C9486000C94860048
:100020000C9486000C9486000C9486000C94860038
:100030000C9486000C9486000C9486000C94860028
:100040000C9483020C9486000C9444040C94870452
:100050000C9486000C9486000C9486000C94860008
:100060000C9486000C94860000000007000201003A
:100070000003040600000000000000000102040864
:100080001020408001020408102001020408102002
:10009000040404040404040402020202020203032E
:1000A0000303030300000000250028002B000000CC
:1000B0000000240027002A00F5013D0511241FBE81
:1000C000CFEFD8E0DEBFCDBF11E0A0E0B1E0E6E4C5
:1000D000F4E102C005900D92A63AB107D9F712E0FB
:1000E000A6EAB1E001C01D92A736B107E1F710E022
:1000F000CCEBD0E004C02297FE010E941D0AC83B51
:10010000D107C9F70E9493050C94E0090C940000F4
:1001100081E08093A6010895EF92FF920F931F93C1
:10012000CF93DF93CDB7DEB7C054D1090FB6F894A3
:10013000DEBF0FBECDBF40E056E960E070E08CEB63
:1001400091E00E94C20460E071E08CEB91E00E94BB
:10015000FB0561E08DE00E943D0360E08DE00E94C0
:10016000760387EA91E00E94520962E087EA91E013
:100170000E94E40744E067E087EA91E00E94F70606
:1001800047E464E087EA91E00E94F70640E065E01A
:1001900087EA91E00E94F70620E440E0BE016F5F2D
:1001A0007F4F87EA91E00E942B078E010F5F1F4F60
:1001B0007E0181E4E80EF11C0E151F0551F0F801D7
:1001C00061918F0140E150E08CEB91E00E94DC06F0
:1001D000F3CF66E071E08CEB91E00E94DE0540EC2D
:1001E00060E387EA91E00E9419074AE050E0682F37
:1001F0008CEB91E00E94DC0666E171E08CEB91E013
:100200000E94DE0540EC61E387EA91E00E94190755
:100210004AE050E0682F8CEB91E00E94DC0666E239
:1002200071E08CEB91E00E94DE0540EC65E387EA2B
:1002300091E00E9419078F71682F70E04AE050E04A
:100240008CEB91E00E94B00642E050E068E870E07C
:1002500080E00E94F90168E371E08CEB91E00E947C
:10026000FB05C05CDF4F0FB6F894DEBF0FBECDBFFD
:10027000DF91CF911F910F91FF90EF900895CF9351
:1002800040EC63E387EA91E00E941907C82F6BE412
:1002900071E08CEB91E00E94DE056C2F60956F732E
:1002A0004AE050E08CEB91E0CF910C94DC06CF93C8
:1002B00040EC64E387EA91E00E941907C82F87FDAC
:1002C000C095C695C65B67E571E08CEB91E00E9436
:1002D000DE054AE050E06C2F8CEB91E0CF910C945E
:1002E000DC06EF92FF920F931F93CF93DF93CDB76E
:1002F000DEB7C154D1090FB6F894DEBF0FBECDBF33
:100300008091A601882309F462C064E671E08CEB59
:1003100091E00E94FB0580E00E9419020E945701B3
:100320000E943F011092A601BE016F5F7F4F87EAD6
:1003300091E00E946509882309F442C08FAD8111C4
:1003400006C064E771E08CEB91E00E94FB058981B7
:100350008823B1F16FE771E08CEB91E00E94DE053C
:100360004AE050E069818CEB91E00E94D5066CE890
:1003700071E08CEB91E00E94DE057E0182E0E80EE8
:10038000F11C00E010E0898190E00817190794F44F
:10039000F70161917F0140E150E08CEB91E00E9418
:1003A000D50662E971E08CEB91E00E94DE050F5FFB
:1003B0001F4FE9CF64E971E08CEB91E00E94FB05EF
:1003C00042E050E068E870E080E00E94F901CF5B15
:1003D000DF4F0FB6F894DEBF0FBECDBFDF91CF91D8
:1003E0001F910F91FF90EF90089587EA91E00C9490
:1003F000F3068230E8F4E82FF0E0EE0FFF1FE1553E
:10040000FE4F71836083813041F0809169008C7F61
:10041000842B80936900E89A089580916900440FC5
:10042000551F440F551F837F842B80936900E99AE1
:100430000895823068F4813011F0E89801C0E9989D
:10044000E82FF0E0EE0FFF1FE155FE4F1182108202
:1004500008951F920F920FB60F9211242F933F937E
:100460004F935F936F937F938F939F93AF93BF93BC
:10047000EF93FF938091AF019091B001892B29F008
:10048000E091AF01F091B0010995FF91EF91BF911B
:10049000AF919F918F917F916F915F914F913F911C
:1004A0002F910F900FBE0F901F9018951F920F92D3
:1004B0000FB60F9211242F933F934F935F936F9337
:1004C0007F938F939F93AF93BF93EF93FF9380910D
:1004D000B1019091B201892B29F0E091B101F09125
:1004E000B2010995FF91EF91BF91AF919F918F91CB
:1004F0007F916F915F914F913F912F910F900FBE20
:100500000F901F9018951F920F920FB60F92112403
:100510002F933F938F939F93AF93BF938091B40199
:100520009091B501A091B601B091B7013091B3019E
:1005300026E0230F2D3720F40296A11DB11D05C022
:1005400029E8230F0396A11DB11D2093B3018093C9
:10055000B4019093B501A093B601B093B701809117
:10056000B8019091B901A091BA01B091BB01019677
:10057000A11DB11D8093B8019093B901A093BA0158
:10058000B093BB01BF91AF919F918F913F912F91FC
:100590000F900FBE0F901F9018958130910541F07C
:1005A0000297009729F0880F991F01970197F1F79B
:1005B0000895789484B5826084BD84B5816084BDDB
:1005C00085B5826085BD85B5816085BDEEE6F0E0CC
:1005D000808181608083E1E8F0E010828081826028
:1005E0008083808181608083E0E8F0E080818160A9
:1005F0008083E1EBF0E0808184608083E0EBF0E0D9
:10060000808181608083EAE7F0E08081846080837C
:100610008081826080838081816080838081806826
:1006200080831092C1000895833081F028F48130D6
:1006300099F08230A1F008958630A9F08730B9F0A2
:100640008430D1F4809180008F7D03C08091800040
:100650008F7780938000089584B58F7702C084B52A
:100660008F7D84BD08958091B0008F7703C0809105
:10067000B0008F7D8093B0000895CF93DF9390E01A
:10068000FC01E458FF4F2491FC01E057FF4F849197
:10069000882349F190E0880F991FFC01E255FF4F34
:1006A000A591B4918C559F4FFC01C591D4919FB7F2
:1006B000611108C0F8948C91209582238C938881D5
:1006C00082230AC0623051F4F8948C91322F309515
:1006D00083238C938881822B888304C0F8948C9127
:1006E000822B8C939FBFDF91CF9108950F931F931F
:1006F000CF93DF931F92CDB7DEB7282F30E0F901FB
:10070000E859FF4F8491F901E458FF4F1491F90122
:10071000E057FF4F04910023C9F0882321F069833B
:100720000E9414036981E02FF0E0EE0FFF1FEC55EB
:10073000FF4FA591B4919FB7F8948C91611103C0BC
:100740001095812301C0812B8C939FBF0F90DF9167
:10075000CF911F910F910895FC0124853585F901F2
:10076000E05CFF4F80819181F901EE5BFF4F2081BA
:100770003181821B930B8F7399270895FC01848527
:100780009585FC01E05CFF4F40815181FC01EE5BEF
:10079000FF4F208131814217530741F00190F081D2
:1007A000E02DE80FF91F808190E008958FEF9FEF13
:1007B0000895FC0184859585FC01E05CFF4F408134
:1007C0005181FC01EE5BFF4F2081318142175307BD
:1007D00079F0A081B181A80FB91F8C91208131815E
:1007E0002F5F3F4F2F7333273183208390E008958D
:1007F0008FEF9FEF0895FC0181A1882329F0A48940
:10080000B5898C9186FFFBCF11A20895CF93DF931A
:10081000FC0126853785D901A05CBF4F8D919C9145
:10082000119701968F739927E901CE5BDF4F4881BD
:10083000598184179507D9F30D90BC91A02DA20F73
:10084000B31F6C93A685B785A05CBF4F11969C9390
:100850008E93A689B7892C9181E090E0078C02C025
:10086000880F991F0A94E2F7282B2C9381E081A32B
:100870000488F589E02D80818064808381E090E0A8
:10088000DF91CF91089508951F920F920FB60F92A6
:1008900011242F933F934F938F939F93EF93FF9345
:1008A0008091C00082FD1CC04091C6008091620210
:1008B0009091630201968F73992720916402309181
:1008C00065028217930771F0E0916202F091630272
:1008D000EE5DFD4F4083909363028093620202C0FD
:1008E0008091C600FF91EF919F918F914F913F9121
:1008F0002F910F900FBE0F901F9018958CEB91E0E9
:100900000E94AC03892B11F00C94430408951F92AC
:100910000F920FB60F9211242F933F938F939F93B3
:10092000EF93FF9320911E0230911F0280912002CD
:10093000909121022817390731F48091C1008F7DF1
:100940008093C10014C0E0912002F0912102E25294
:10095000FE4F2081809120029091210201968F7399
:10096000992790932102809320022093C600FF9143
:10097000EF919F918F913F912F910F900FBE0F900C
:100980001F901895CF92DF92EF92FF92CF93DF9353
:10099000EC016A017B01EC89FD8981E090E008A00F
:1009A00002C0880F991F0A94E2F7808360E874E818
:1009B0008EE190E0A70196010E94F90921503109CA
:1009C000410951095695479537952795211580E19D
:1009D000380798F0EC89FD89108260E472E48FE0BA
:1009E00090E0A70196010E94F909215031094109BF
:1009F00051095695479537952795E889F9893083A8
:100A0000EA89FB89208319A2EE89FF89408181E070
:100A100090E09C010C8C02C0220F331F0A94E2F775
:100A2000422B4083EE89FF8940819C010D8C02C0DE
:100A3000220F331F0A94E2F7422B4083EE89FF898D
:100A400040819C010E8C02C0220F331F0A94E2F7F2
:100A5000422B4083EE89FF8920810F8C02C0880FD2
:100A6000991F0A94E2F7809582238083DF91CF91CA
:100A7000FF90EF90DF90CF9008951092BF011092F9
:100A8000BE0188EE93E0A0E0B0E08093C0019093B7
:100A9000C101A093C201B093C3018AE991E0909390
:100AA000BD018093BC0182E292E09093C9018093E2
:100AB000C8018EED91E09093CB018093CA0185EC43
:100AC00090E09093CD018093CC0184EC90E09093E2
:100AD000CF018093CE0180EC90E09093D101809380
:100AE000D00181EC90E09093D3018093D20182EC0D
:100AF00090E09093D5018093D40186EC90E09093A0
:100B0000D7018093D60184E08093D80183E080935D
:100B1000D90187E08093DA0185E08093DB0181E0F1
:100B20008093DC0108950E94D9020E948C00CEE7D8
:100B3000D4E00E9471012097E1F30E947E04F9CF76
:100B4000CF92DF92EF92FF920F931F93CF93DF9399
:100B50006C017A01EB01E60EF71E00E010E0CE1505
:100B6000DF0561F06991D601ED91FC910190F08172
:100B7000E02DC6010995080F191FF1CFC801DF91BB
:100B8000CF911F910F91FF90EF90DF90CF9008953C
:100B90006115710581F0DB010D900020E9F7AD01D1
:100BA00041505109461B570BDC01ED91FC9102802D
:100BB000F381E02D099480E090E008950C94C8053D
:100BC000DC01ED91FC910190F081E02D09940F93EF
:100BD0001F93CF93DF93EC016DE00E94E0058C0141
:100BE0006AE0CE010E94E005800F911FDF91CF9156
:100BF0001F910F9108950F931F93CF93DF93EC01F3
:100C00000E94C8058C01CE010E94E705800F911F4C
:100C1000DF91CF911F910F9108958F929F92AF9284
:100C2000BF92CF92DF92EF92FF920F931F93CF93D9
:100C3000DF93CDB7DEB7A1970FB6F894DEBF0FBE36
:100C4000CDBF7C01C42EE52FCB01D22E19A221E00D
:100C50002D1510F02AE0D22E8E010F5D1F4F8D2C26
:100C6000912CA12CB12C6C2D7E2FA50194010E94FA
:100C7000F9098C2DD29E80191124015011098A3056
:100C800014F4805D01C0895CF80180832115310571
:100C90004105510521F0C22EE32FCA01E4CFB8016E
:100CA000C7010E94C805A1960FB6F894DEBF0FBE1B
:100CB000CDBFDF91CF911F910F91FF90EF90DF900B
:100CC000CF90BF90AF909F908F900895CF92DF927A
:100CD000EF92FF920F931F93CF93DF93EC016A0182
:100CE0007B012115310579F4E881F9810190F081CA
:100CF000E02D642FDF91CF911F910F91FF90EF9026
:100D0000DF90CF9009942A303105E9F477FF1AC0BB
:100D10006DE20E94E0058C0144275527BA014C1969
:100D20005D096E097F092AE0CE010E940D06800F41
:100D3000911FDF91CF911F910F91FF90EF90DF9066
:100D4000CF9008952AE0B701A601CE01DF91CF919F
:100D50001F910F91FF90EF90DF90CF900C940D06B4
:100D60000F931F93CF93DF93EC019A01AB0166279A
:100D700057FD6095762F0E9466068C01CE010E9479
:100D8000E705800F911FDF91CF911F910F9108957B
:100D90002115310541F4DC01ED91FC910190F081C8
:100DA000E02D642F09940C940D069A01462F50E013
:100DB00060E070E00C94C8060F931F93CF93DF930D
:100DC000EC019A01462F50E060E070E00E94C806F6
:100DD0008C01CE010E94E705800F911FDF91CF911A
:100DE0001F910F91089520E6FC01228308950F932F
:100DF0001F93CF93DF931F92CDB7DEB78C012A9854
:100E00001C99FECFC80149830E94D3094981642FF0
:100E1000C8010E94D3092A9A0F90DF91CF911F91A8
:100E20000F9108952A981C99FECF0E94D3092A9AFF
:100E30000895CF93DF93EC01642B2A981C99FECF81
:100E4000CE010E94D30960E0CE010E94D3092A9A04
:100E5000DF91CF910895AF92BF92DF92EF92FF9210
:100E60000F931F93CF93DF931F92CDB7DEB78C0103
:100E7000F62EE22E406C2A981C99FECF642FC801F2
:100E800079830E94D309DF2CAF2C7981B72E8A2D6C
:100E90008D198E1540F460E0C8010E94D309F50158
:100EA00081935F01F4CF2A9A0F90DF91CF911F9128
:100EB0000F91FF90EF90DF90BF90AF900895EF9269
:100EC000FF920F931F93CF93DF931F92CDB7DEB79F
:100ED0007C01062F142FFC018581861303C08681B7
:100EE000841731F1402F64E0C70129830E94F7067F
:100EF000412F65E0C7010E94F706F70105831683BD
:100F000029812223A9F0402F62E070E086E692E07A
:100F10000E94DC09412F63E070E086E692E00F90CA
:100F2000DF91CF911F910F91FF90EF900C94DC090E
:100F30000F90DF91CF911F910F91FF90EF90089547
:100F40000F931F93CF93DF93EC01162F042F8F8104
:100F5000861799F0462F69E0CE010E94F7061F839D
:100F6000002359F0412F64E070E086E692E0DF91C3
:100F7000CF911F910F910C94DC09DF91CF911F91BC
:100F80000F9108950F931F93CF93DF93EC01162FCA
:100F9000042F8C81861799F0462F6AE0CE010E94BB
:100FA000F7061C83002359F0412F60E070E086E6CD
:100FB00092E0DF91CF911F910F910C94DC09DF91AA
:100FC000CF911F910F9108951F93CF93DF93EC0161
:100FD000162F613021F0623071F440E101C042E22D
:100FE0006DE0CE010E94F70641EB6EE0CE010E945B
:100FF000F7064BE30AC041E26DE00E94F70642E6C5
:101000006EE0CE010E94F70646E76FE0CE010E9437
:10101000F7061B83DF91CF911F910895CF93DF9344
:10102000EC014EE260E00E94F7064EE261E0CE0184
:101030000E94F70646E062E0CE010E94F70647E014
:1010400063E0CE010E94F7064DE366E0CE010E9408
:10105000F70644E067E0CE010E94F70645E068E04D
:10106000CE010E94F70620E047E465EBCE010E9426
:101070005F0740E060E0CE010E94A00740E060E032
:10108000CE010E94C20746E06BE0CE010E94F70647
:1010900040E06CE0CE010E94F70660E0CE010E94C5
:1010A000E4074AEC60E1CE010E94F70643E861E103
:1010B000CE010E94F70643E162E1CE010E94F706ED
:1010C00042E263E1CE010E94F70648EF64E1CE01FF
:1010D0000E94F70645E365E1CE010E94F70647E06E
:1010E00066E1CE010E94F70640E367E1CE010E946F
:1010F000F70648E168E1CE010E94F70646E169E1A2
:10110000CE010E94F7064CE66AE1CE010E94F70686
:1011100043E46BE1CE010E94F70640E46CE1CE01AE
:101120000E94F70641E96DE1CE010E94F70647E80B
:101130006EE1CE010E94F7064BE66FE1CE010E9400
:10114000F7064BEF60E2CE010E94F70646E561E24A
:10115000CE010E94F70640E162E2CE010E94F7064E
:1011600049EE63E2CE010E94F7064AE264E2CE0154
:101170000E94F70640E065E2CE010E94F7064FE1CB
:1011800066E2CE010E94F70641E467E2CE010E94CA
:10119000F70640E068E2CE010E94F70649E569E201
:1011A000CE010E94F7064FE76AE2CE010E94F706E1
:1011B0004FE36BE2CE010E94F70641E86CE2CE01FC
:1011C0000E94F70645E36DE2CE010E94F70649E072
:1011D0006EE2CE01DF91CF910C94F7061F93CF936F
:1011E000DF93EC0160E070E086E692E00E94D909AE
:1011F0008A3028F440E0682FCE010E94C20762E0E6
:1012000070E086E692E00E94D909182F63E070E052
:1012100086E692E00E94D9099FEF910F9E3F20F051
:101220009FEF980F9E3F30F420E0482F612FCE01B2
:101230000E945F0764E070E086E692E00E94D909B0
:10124000882341F040E0682FCE01DF91CF911F91BC
:101250000C94A007DF91CF911F910895CF93DF9356
:10126000EC012A9A85E090E00E94CD022A988AE05B
:1012700090E00E94CD022A9A89E290E00E94CD027D
:101280002A981C99FECF60E3CE010E94D3091C99D5
:10129000FECF2A9ACE010E940E08CE01DF91CF9197
:1012A0000C94EE08CF93DF93EC010E94B40960E048
:1012B00082E00E943D03CE010E942E094A816EE326
:1012C000CE01DF91CF910C94F706FF920F931F93FD
:1012D000CF93DF938C01EB0140EC6BE30E94190785
:1012E000F82E8CED95E00E94CD028F2D8F7741F185
:1012F000F7FC26C040E86FE3C8010E941907888305
:101300008E33F0F4282F4FE3BE016F5F7F4FC8018B
:101310000E942B0740E86FE3C8010E9419078FAFB6
:1013200040E86FE3C8010E941907FE01E05CFF4F2F
:10133000982F9F779083881F8827881F8EAF01C0C2
:10134000188266E3C8010E9412076AE3C8010E947E
:10135000120764E3C8010E9412078881DF91CF91D0
:101360001F910F91FF90089561E08AE00E9476033B
:1013700061E08AE00E943D0361E08BE00E943D0352
:1013800060E08CE00E943D0361E08DE00E943D033F
:1013900061E08DE00E94760360E08BE00E947603BE
:1013A00080E58CBD08956EBD0DB407FEFDCF8EB5F2
:1013B0000895CB010C94E309CB01642F0C94EB0945
:1013C000F8940C94210AF999FECF92BD81BDF89A48
:1013D000992780B50895262FF999FECF1FBA92BD9F
:1013E00081BD20BD0FB6F894FA9AF99A0FBE019606
:1013F0000895A1E21A2EAA1BBB1BFD010DC0AA1F56
:10140000BB1FEE1FFF1FA217B307E407F50720F06D
:10141000A21BB30BE40BF50B661F771F881F991FE8
:101420001A9469F760957095809590959B01AC0131
:10143000BD01CF010895EE0FFF1F0590F491E02D3F
:061440000994F894FFCFAF
:101446007374617274004343313130315F504152DD
:10145600544E554D20004343313130315F5645528D
:1014660053494F4E20004343313130315F4D415295
:101476004353544154452000646576696365206989
:101486006E697469616C697A656400434331313011
:10149600315F4C514920004343313130315F525363
:1014A600534920007061636B6574207265636569DA
:1014B60076656400637263206E6F74206F6B0070D4
:1014C60061636B65743A206C656E200020646174FC
:1014D600613A20002E00000000000604A005AC03BF
:0614E600D903BE03FB0365
:00000001FF
