:100000000C945E000C9486000C9486000C94860080
:100010000C9486000C9486000C9486000C94860048
:100020000C9486000C9486000C9486000C94860038
:100030000C9486000C9486000C9486000C94860028
:100040000C94CC010C9486000C94E0030C941C04DA
:100050000C9486000C9486000C9486000C94860008
:100060000C9486000C94860000000007000201003A
:100070000003040600000000000000000102040864
:100080001020408001020408102001020408102002
:10009000040404040404040402020202020203032E
:1000A0000303030300000000250028002B000000CC
:1000B0000000240027002A00C801D10411241FBE1B
:1000C000CFEFD8E0DEBFCDBF11E0A0E0B1E0E6E2C7
:1000D000F4E102C005900D92AA39B107D9F712E0F8
:1000E000AAE9B1E001C01D92A435B107E1F710E023
:1000F000CCEBD0E004C02297FE010E940D0AC83B61
:10010000D107C9F70E9421050C94D0090C94000076
:10011000EF92FF920F931F93CF93DF93CDB7DEB78C
:10012000A0970FB6F894DEBF0FBECDBF40E056E9F2
:1001300060E070E08CEA91E00E94570460E071E0BA
:100140008CEA91E00E94850510929A0166E071E0C8
:100150008CEA91E00E9485058BE991E00E941D09DF
:1001600062E08BE991E00E94AE0744E067E08BE932
:1001700091E00E948B0680E680939D0168EE73E01B
:1001800080E090E00E94400266E171E08CEA91E03C
:100190000E94660540EC60E38BE991E00E94DF0677
:1001A0004AE050E0682F8CEA91E00E94090666E27E
:1001B00071E08CEA91E00E94660540EC61E38BE916
:1001C00091E00E94DF064AE050E0682F8CEA91E05F
:1001D0000E94090666E371E08CEA91E00E946605E0
:1001E00040EC65E38BE991E00E94DF06682F6F71B8
:1001F0004AE050E070E08CEA91E00E946D0668E40D
:1002000071E08CEA91E00E9485056BE571E08CEA73
:1002100091E00E94850547E464E08BE991E00E944B
:100220008B0640E065E08BE991E00E948B0620E2BE
:1002300040E0BE016F5F7F4F8BE991E00E94F506C1
:100240008E010F5F1F4F7E0181E2E80EF11C09C095
:10025000F80161918F0140E150E08CEA91E00E9449
:1002600009060E151F05A1F7A0960FB6F894DEBF7C
:100270000FBECDBFDF91CF911F910F91FF90EF90F7
:1002800008951F93CF93DF93CDB7DEB7C154D10943
:100290000FB6F894DEBF0FBECDBF61E087E00E94CD
:1002A0000D038AE0898310919A01812F8F5F8093DB
:1002B0009A0185E08A831B831C8281E08D831E82E4
:1002C00066E371E08CEA91E00E94660540EC65E32C
:1002D0008BE991E00E94DF06682F6F714AE050E0E1
:1002E00070E08CEA91E00E946D062DB73EB7215474
:1002F00031090FB6F8943EBF0FBE2DBFADB7BEB7E4
:10030000119681E4FE01319601900D928A95E1F7F4
:100310008BE991E00E9430090FB6F894DEBF0FBE62
:10032000CDBF8823E9F040E150E0612F8CEA91E0F5
:100330000E9402066EE671E08CEA91E00E9485055B
:1003400064EF71E080E090E0CF5BDF4F0FB6F89490
:10035000DEBF0FBECDBFDF91CF911F910C94400245
:100360006AE771E08CEA91E0CF5BDF4F0FB6F8945B
:10037000DEBF0FBECDBFDF91CF911F910C948505DD
:100380000E94410160EA7FE080E090E00C9440022E
:100390008BE991E00C9487061F920F920FB60F9293
:1003A00011242F933F938F939F93AF93BF9380918B
:1003B000A3019091A401A091A501B091A601309153
:1003C000AB01232F2A5F2D3720F40296A11DB11D0A
:1003D00005C0232F27570396A11DB11D2093AB0104
:1003E0008093A3019093A401A093A501B093A601CB
:1003F0008091A7019091A801A091A901B091AA01B3
:100400000196A11DB11D8093A7019093A801A0930F
:10041000A901B093AA01BF91AF919F918F913F9194
:100420002F910F900FBE0F901F9018950F931F9351
:100430009FB7F8940091A7011091A8012091A901FC
:100440003091AA0186B5A89B06C08F3F21F00F5FAF
:100450001F4F2F4F3F4F9FBF322F212F102F0027AD
:10046000080F111D211D311D43E0000F111F221F18
:10047000331F4A95D1F7B801C9011F910F91089513
:10048000CF92DF92EF92FF92CF93DF936B017C01CB
:100490000E941602EB010EC00E9416026C1B7D0B1F
:1004A000683E734038F081E0C81AD108E108F108CD
:1004B000C851DC4FC114D104E104F10469F7DF91A4
:1004C000CF91FF90EF90DF90CF900895019739F092
:1004D000019729F0880F991F01970197F1F7089567
:1004E000789484B5826084BD84B5816084BD85B50F
:1004F000826085BD85B5816085BDEEE6F0E08081D6
:1005000081608083E1E8F0E01082808182608083F6
:10051000808181608083E0E8F0E080818160808379
:10052000E1EBF0E0808184608083E0EBF0E08081AB
:1005300081608083EAE7F0E080818460808380814D
:1005400082608083808181608083808180688083F5
:100550001092C1000895833069F028F48130A1F031
:10056000823011F514C08630B1F08730C1F084308C
:10057000D9F404C0809180008F7703C080918000FF
:100580008F7D80938000089584B58F7702C084B5F5
:100590008F7D84BD08958091B0008F7703C08091D6
:1005A000B0008F7D8093B0000895CF93DF9390E0EB
:1005B000FC01E458FF4F4491FC01E057FF4F849148
:1005C000882341F190E0880F991FFC01E255FF4F0D
:1005D00025913491D9018C559F4FFC0185919491BF
:1005E000C82FD92F9FB7F8948C91611106C0409500
:1005F00084238C938881842308C0623041F4242FA3
:10060000209582238C938881842B888302C0842B3D
:100610008C939FBFDF91CF9108950F931F93CF933A
:10062000DF931F92CDB7DEB7282F30E0F901E859EC
:10063000FF4F8491F901E458FF4F1491F901E057FD
:10064000FF4F04910023D1F0882321F069830E9499
:10065000AB026981E02FF0E0EE0FFF1FEC55FF4F7A
:1006600085919491DC019FB7F8948C91611103C03E
:100670001095812301C0812B8C939FBF0F90DF9138
:10068000CF911F910F910895FC0184859585FC0100
:10069000E05CFF4F20813181FC01EE5BFF4F8081E8
:1006A0009181281B390B2F733327C9010895FC0151
:1006B00084859585FC01E05CFF4F40815181FC0100
:1006C000EE5BFF4F208131814217530741F00190CB
:1006D000F081E02DE80FF91F208130E002C02FEFFC
:1006E0003FEFC9010895FC0184859585FC01E05C1C
:1006F000FF4F40815181FC01EE5BFF4F2081318132
:100700004217530781F0A081B181A80FB91F8C91C6
:10071000208131812F5F3F4F2F7333273183208317
:10072000282F30E002C02FEF3FEFC9010895FC01F0
:1007300086859785FC01E05CFF4FDC01AE5BBF4F17
:10074000408151812D913C91119742175307C1F778
:100750000895CF93DF93FC0186859785DC01A05C2B
:10076000BF4F2D913C9111972F5F3F4F2F73332730
:10077000EC01CE5BDF4F4881598124173507D9F34F
:100780000D90BC91A02DA80FB91F6C93A685B785BD
:10079000A05CBF4F11963C932E93A689B7892C91EC
:1007A00081E090E0058C02C0880F991F0A94E2F75F
:1007B000282B2C9381E090E0DF91CF91089508954C
:1007C0001F920F920FB60F9211242F933F934F93C6
:1007D0008F939F93EF93FF934091C60080914F02B8
:1007E0009091500201968F73992720915102309178
:1007F00052028217930759F0E0914F02F091500294
:10080000E15FFD4F40839093500280934F02FF9130
:10081000EF919F918F914F913F912F910F900FBE2C
:100820000F901F9018958CEA91E00E944403892B49
:1008300011F00C94DF0308951F920F920FB60F92E0
:1008400011242F933F938F939F93EF93FF932091C6
:100850000B0230910C0280910D0290910E0228172C
:10086000390731F48091C1008F7D8093C10014C09D
:10087000E0910D02F0910E02E553FE4F2081809130
:100880000D0290910E0201968F73992790930E029C
:1008900080930D022093C600FF91EF919F918F915D
:1008A0003F912F910F900FBE0F901F901895CF92F0
:1008B000DF92EF92FF92CF93DF93EC016A017B010D
:1008C000EC89FD8981E090E00E8C02C0880F991FB1
:1008D0000A94E2F7808360E874E88EE190E0A70173
:1008E00096010E94E90921503109410951095695A3
:1008F000479537952795211580E1380798F0EC89C1
:10090000FD89108260E472E48FE090E0A701960117
:100910000E94E9092150310941095109569547952D
:1009200037952795E889F9893083EA89FB892083FF
:10093000EE89FF89408181E090E09C010A8C02C031
:10094000220F331F0A94E2F7422B4083EE89FF897E
:1009500040819C010B8C02C0220F331F0A94E2F7E6
:10096000422B4083EE89FF8940819C010C8C02C0A0
:10097000220F331F0A94E2F7422B4083EE89FF894E
:1009800020810D8C02C0880F991F0A94E2F7809590
:1009900082238083DF91CF91FF90EF90DF90CF9003
:1009A00008951092AF011092AE0188EE93E0A0E09E
:1009B000B0E08093B0019093B101A093B201B093E5
:1009C000B3018DE891E09093AD018093AC018FE08D
:1009D00092E09093B9018093B8018BEC91E09093F1
:1009E000BB018093BA0185EC90E09093BD018093A8
:1009F000BC0184EC90E09093BF018093BE0180EC39
:100A000090E09093C1018093C00181EC90E09093BD
:100A1000C3018093C20186EC90E09093C50180935E
:100A2000C40184E08093C60183E08093C70187E01E
:100A30008093C80185E08093C90181E08093CA0159
:100A400008950E9470020E948800C3E1D4E00E94D1
:100A5000C0012097E1F30E941304F9CFCF92DF92F7
:100A6000EF92FF920F931F93CF93DF936C01EB01F3
:100A70007A01E60EF71E00E010E00BC06991D60186
:100A8000ED91FC910190F081E02DC6010995080FD0
:100A9000191FCE15DF0591F7C801DF91CF911F9186
:100AA0000F91FF90EF90DF90CF900895DB010D90B4
:100AB0000020E9F7AD0141505109461B570BDC01FD
:100AC000ED91FC910280F381E02D09940C94560580
:100AD000DC01ED91FC910190F081E02D09940F93E0
:100AE0001F93CF93DF93EC016DE00E9468058C01AA
:100AF0006AE0CE010E9468059C01200F311FC901E8
:100B0000DF91CF911F910F9108950F931F93CF9372
:100B1000DF93EC010E9456058C01CE010E946F0507
:100B20009801280F391FC901DF91CF911F910F91B3
:100B300008954F925F926F927F929F92AF92BF9271
:100B4000CF92DF92EF92FF920F931F93CF93DF9399
:100B5000CDB7DEB7A1970FB6F894DEBF0FBECDBFFD
:100B60005C016A017B01922E19A281E0821710F0CC
:100B70008AE0982E8E010F5D1F4F492C512C612C5D
:100B8000712CC701B601A30192010E94E9098C2DC5
:100B9000929E80191124015011098A3014F4805D4D
:100BA00001C0895CF801808369017A01C114D10414
:100BB000E104F10431F7B801C5010E945605A19680
:100BC0000FB6F894DEBF0FBECDBFDF91CF911F915E
:100BD0000F91FF90EF90DF90CF90BF90AF909F90DC
:100BE0007F906F905F904F9008952115310541F4EB
:100BF000DC01ED91FC910190F081E02D642F0994CE
:100C00000C9499059A01462F50E060E070E00C9436
:100C1000F5050F931F93CF93DF93EC019A01462FB5
:100C200050E060E070E00E94F5058C01CE010E946A
:100C30006F059801280F391FC901DF91CF911F91CE
:100C40000F910895CF92DF92EF92FF920F931F932F
:100C5000CF93DF93EC016A017B012115310579F413
:100C6000E881F9810190F081E02D642FDF91CF912F
:100C70001F910F91FF90EF90DF90CF9009942A3051
:100C8000310519F477FD0EC02AE0B701A601CE01A7
:100C9000DF91CF911F910F91FF90EF90DF90CF9058
:100CA0000C9499056DE20E9468058C014427552734
:100CB000BA014C195D096E097F092AE0CE010E9434
:100CC0009905080F191FC801DF91CF911F910F914E
:100CD000FF90EF90DF90CF9008950F931F93CF93E5
:100CE000DF93EC019A01AB01662757FD6095762FE3
:100CF0000E9422068C01CE010E946F059801280FE8
:100D0000391FC901DF91CF911F910F91089520E6FE
:100D1000FC01228308950F931F93CF93DF931F92BB
:100D2000CDB7DEB78C012A981C99FECFC801498344
:100D30000E94C3094981642FC8010E94C3092A9AED
:100D40000F90DF91CF911F910F910895CF92DF9275
:100D5000EF92FF920F931F93CF93DF931F92CDB724
:100D6000DEB7182F092FF42EE22E60642A981C9902
:100D7000FECF812F902F59830E94C309CF2C598118
:100D8000D52E07C0F60161916F01812F902F0E942F
:100D9000C3098C2D8F198E15A8F32A9A0F90DF9115
:100DA000CF911F910F91FF90EF90DF90CF9008951A
:100DB0002A981C99FECF0E94C3092A9A0895CF93BE
:100DC000DF93D82FC92F462B2A981C99FECF642F6A
:100DD0008D2F9C2F0E94C30960E08D2F9C2F0E94B5
:100DE000C3092A9ADF91CF910895CF92DF92EF92B3
:100DF000FF920F931F93CF93DF931F92CDB7DEB770
:100E0000082FF92E162FE22E406C2A981C99FECF3F
:100E1000642F802F9F2D79830E94C309C12E798171
:100E2000D72E08C060E0802F9F2D0E94C309F601D5
:100E300081936F018C2D811B8E15A0F32A9A0F9040
:100E4000DF91CF911F910F91FF90EF90DF90CF90A6
:100E50000895EF92FF920F931F93CF93DF931F920A
:100E6000CDB7DEB77C01062F142FFC0185818613D8
:100E700003C08681841731F1402F64E0C7012983C4
:100E80000E948B06412F65E0C7010E948B06F70187
:100E90000583168329812223A9F0402F62E070E0A8
:100EA00083E592E00E94CC09412F63E070E083E586
:100EB00092E00F90DF91CF911F910F91FF90EF90F3
:100EC0000C94CC090F90DF91CF911F910F91FF905F
:100ED000EF9008950F931F93CF93DF93EC01162F9C
:100EE000042F8F81861799F0462F69E0CE010E946A
:100EF0008B061F83002359F0412F64E070E083E5E7
:100F000092E0DF91CF911F910F910C94CC09DF916A
:100F1000CF911F910F9108950F931F93CF93DF935C
:100F2000EC01162F042F8C81861799F0462F6AE06A
:100F3000CE010E948B061C83002359F0412F60E0F4
:100F400070E083E592E0DF91CF911F910F910C94B7
:100F5000CC09DF91CF911F910F9108951F93CF93EB
:100F6000DF93EC01162F613019F0623079F402C082
:100F700042E201C040E16DE0CE010E948B0641EBF0
:100F80006EE0CE010E948B064BE30AC041E26DE0A9
:100F90000E948B0642E66EE0CE010E948B0646E779
:100FA0006FE0CE010E948B061B83DF91CF911F91D2
:100FB0000895CF93DF93EC014EE260E00E948B0630
:100FC0004EE261E0CE010E948B0646E062E0CE0177
:100FD0000E948B0647E063E0CE010E948B064DE342
:100FE00066E0CE010E948B0644E067E0CE010E94DD
:100FF0008B0645E068E0CE010E948B0620E047E4C6
:1010000065EBCE010E94290740E060E0CE010E941E
:101010006A0740E060E0CE010E948C0746E06BE08A
:10102000CE010E948B0640E06CE0CE010E948B0650
:1010300060E0CE010E94AE074AEC60E1CE010E9462
:101040008B0643E861E1CE010E948B0643E162E139
:10105000CE010E948B0642E263E1CE010E948B0624
:1010600048EF64E1CE010E948B0645E365E1CE01C5
:101070000E948B0647E066E1CE010E948B0640E3AA
:1010800067E1CE010E948B0648E168E1CE010E9433
:101090008B0646E169E1CE010E948B064CE66AE1CF
:1010A000CE010E948B0643E46BE1CE010E948B06C9
:1010B00040E46CE1CE010E948B0641E96DE1CE0176
:1010C0000E948B0647E86EE1CE010E948B064BE63C
:1010D0006FE1CE010E948B064BEF60E2CE010E94D1
:1010E0008B0646E561E2CE010E948B0640E162E29A
:1010F000CE010E948B0649EE63E2CE010E948B0670
:101100004AE264E2CE010E948B0640E065E2CE0135
:101110000E948B064FE166E2CE010E948B0641E4FD
:1011200067E2CE010E948B0640E068E2CE010E9499
:101130008B0649E569E2CE010E948B064FE76AE221
:10114000CE010E948B064FE36BE2CE010E948B061C
:1011500041E86CE2CE010E948B0645E36DE2CE01D0
:101160000E948B0649E06EE2CE01DF91CF910C9494
:101170008B061F93CF93DF93EC0160E070E083E573
:1011800092E00E94C9098A3028F440E0682FCE011D
:101190000E948C0762E070E083E592E00E94C9093A
:1011A000182F63E070E083E592E00E94C909912F57
:1011B00091509E3F20F0982F91509E3F30F420E0B8
:1011C000482F612FCE010E94290764E070E083E57B
:1011D00092E00E94C909882341F040E0682FCE01C7
:1011E000DF91CF911F910C946A07DF91CF911F91EE
:1011F0000895CF93DF93EC012A9A85E090E00E9456
:1012000066022A988AE090E00E9466022A9A89E2A1
:1012100090E00E9466022A981C99FECF60E3CE01FE
:101220000E94C3091C99FECF2A9ACE010E94D907B9
:10123000CE01DF91CF910C94B908CF93DF93EC01ED
:101240000E94A40960E082E00E94D502CE010E94C3
:10125000F9084A816EE3CE01DF91CF910C948B06A1
:10126000EF92FF920F931F93CF93DF93CDB7DEB72B
:101270008C0182E0F801818364E303C0813121F4B1
:101280006AE3C8010E94D80640EC65E3C8010E94E9
:10129000DF06982F9F719D3089F78CED95E00E94B5
:1012A000660289E0E82EF12CEC0EFD1EF70141915B
:1012B0007F016FE3C8010E948B062985A7016FE3B8
:1012C000C8010E94A60665E3C8010E94D80640EC4A
:1012D00065E3C8010E94DF068F718351833080F07F
:1012E00066E3C8010E94D8066BE3C8010E94D806D5
:1012F00064E3C8010E94D80681E0F80181831CC024
:101300004A9BFECF4A99FECF40EC6AE3C8010E9497
:10131000DF06F82E66E3C8010E94D8066BE3C80119
:101320000E94D80664E3C8010E94D80681E0F80153
:1013300081839F2D9F7709F080E0DF91CF911F91EE
:101340000F91FF90EF90089561E08AE00E940D03F5
:1013500061E08AE00E94D50261E08BE00E94D50244
:1013600060E08CE00E94D50261E08DE00E94D50231
:1013700061E08DE00E940D0360E08BE00E940D03B0
:1013800080E58CBD08956EBD0DB407FEFDCF8EB512
:101390000895CB010C94D309CB01642F0C94DB0985
:1013A000F8940C94110AF999FECF92BD81BDF89A78
:1013B000992780B50895262FF999FECF1FBA92BDBF
:1013C00081BD20BD0FB6F894FA9AF99A0FBE019626
:1013D0000895A1E21A2EAA1BBB1BFD010DC0AA1F76
:1013E000BB1FEE1FFF1FA217B307E407F50720F08E
:1013F000A21BB30BE40BF50B661F771F881F991F09
:101400001A9469F760957095809590959B01AC0151
:10141000BD01CF010895EE0FFF1F0590F491E02D5F
:061420000994F894FFCFCF
:10142600737461727400696E697469616C697A6952
:101436006E672E2E2E004343313130315F504152BC
:10144600544E554D20004343313130315F5645529D
:1014560053494F4E20004343313130315F4D4152A5
:101466004353544154452000646576696365206999
:101476006E697469616C697A65640052656769733F
:10148600746572732072656164696E672E002073DD
:10149600656E74206F6B203A290073656E74206642
:1014A60061696C6564203A280000000000A9032EDB
:0A14B6000544037303570397030076
:00000001FF
