:100000000C946B000C9493000C9493000C9493004C
:100010000C9493000C9493000C9493000C94930014
:100020000C9493000C941B040C9493000C942506E0
:100030000C9460060C9493000C9493000C94930021
:100040000C9493000C9493000C9493000C949300E4
:100050000C9493000000000100000000000000006C
:100060000403000500000000000000000000000084
:100070000000000001020408102040800102040872
:100080001020408001020408102040808040201091
:100090000804020102020202020202020404040431
:1000A0000404040403030303030303030101010124
:1000B000010101010000390036003300300000006A
:1000C0003B0038003500320000003A0037003400B1
:1000D00031001604100711241FBECFE5D4E0DEBFA7
:1000E000CDBF11E0A0E6B0E0ECEFFAE102C0059070
:1000F0000D92A032B107D9F711E0A0E2B1E001C042
:100100001D92A03EB107E1F710E0C6EDD0E004C0BB
:100110002297FE010E94780DC23DD107C9F70E94C7
:1001200060070C943A0B0C94000082E291E00E946C
:100130006B0982E291E00E947C0A40E06EE482E278
:1001400091E00E94040A40E060E082E291E00E94B7
:10015000040A40E06BE082E291E00E94040A82E23D
:1001600091E00E946B0982E291E00E947C0A40E0EB
:1001700068E482E291E00E94040A40E060E082E2EA
:1001800091E00E94040A82E291E00C946B0940E045
:100190005BE460E070E089E391E00E94960660E62F
:1001A00070E089E391E00E94C40761E08DE00E9465
:1001B000F10461E08EE00E94F10460E08DE00E94B5
:1001C000290561E08EE00E9429050C949500EF92CC
:1001D000FF920F931F93CF93DF93CDB7DEB7A9970D
:1001E0000FB6F894DEBF0FBECDBF82E291E00E9451
:1001F0006B098EE00E94600590932101809320019D
:1002000060E01816190634F48EE00E94290561E0BA
:100210008DE005C08DE00E94290561E08EE00E941E
:100220002905BE016F5F7F4F82E291E00E94B00A14
:10023000882359F189E391E00E94AE076CE670E0F3
:1002400089E391E00E94A5078E010F5F1F4F7E0199
:100250002AE0E20EF11CF80161918F0140E150E0CB
:1002600089E391E00E9441080E151F05A1F789E37B
:1002700091E00E94AE0782E291E00E94800A6AEF5C
:1002800070E080E090E00E94900482E291E00E94A1
:100290006B0982E291E00E947C0A40E064EB82E21A
:1002A00091E00E94040A62E370E080E090E00E9426
:1002B000900482E291E00E946B0982E291E00E9448
:1002C0007C0A40E064E482E291E00E94040A6EEE5F
:1002D00072E080E090E00E94900482E291E00E944F
:1002E0006B0982E291E00E947C0A40E068EB82E2C6
:1002F00091E00E94040A40E060E082E291E00E9406
:10030000040A62E370E080E090E00E94900482E2E0
:1003100091E00E946B0982E291E00E947C0A40E039
:100320006EEB82E291E00E94040A40E060E082E22B
:1003300091E00E94040A62E370E080E090E00E9495
:10034000900448E050E0BE016E5D7F4F82E291E094
:100350000E94620A82E291E00E946B0982E291E0CF
:100360000E947C0A40E068EB82E291E00E94040A6D
:1003700040E061E082E291E00E94040A82E291E0C2
:100380000E946B0982E291E00E947C0A40E06EEBE1
:1003900082E291E00E94040A40E061E082E291E0A2
:1003A0000E94040A48E050E0BE01665E7F4F82E290
:1003B00091E00E94620A82E291E00E946B0982E26F
:1003C00091E00E947C0A40E068EB82E291E00E94AA
:1003D000040A40E062E082E291E00E94040A82E2C4
:1003E00091E00E946B0982E291E00E947C0A40E069
:1003F0006EEB82E291E00E94040A40E062E082E259
:1004000091E00E94040A48E050E0BE016E5E7F4F1A
:1004100082E291E00E94620A82E291E00E946B090E
:1004200082E291E00E947C0A40E068EB82E291E087
:100430000E94040A40E067E082E291E00E94040A20
:1004400082E291E00E946B0982E291E00E947C0AC4
:1004500040E06EEB82E291E00E94040A40E067E037
:1004600082E291E00E94040A48E050E0BE01665F2B
:100470007F4F82E291E00E94620A63E770E089E3C5
:1004800091E00E94A5078E010E5D1F4F7E01FBE2E9
:10049000EF0EF11CF80161918F0142E050E089E319
:1004A00091E00E9441080E151F05A1F789E391E034
:1004B0000E94AE0769E770E089E391E00E94A5071A
:1004C00042E050E06AA189E391E00E94480862E8B6
:1004D00070E089E391E00E94A5076BA170E083E0E2
:1004E000759567958A95E1F78CA1F0E28F9FC00121
:1004F0001124682B792B882777FD8095982F0E94EF
:10050000410C20E030E040E05DE30E94F10CAB01E3
:10051000BC0122E030E089E391E00E9455097EA110
:1005200060E0662773708DA1682B882777FD809522
:10053000982F0E94410C20E030E048EC52E40E94E9
:10054000A60B7B018C0160E970E089E391E00E94D9
:10055000A50722E030E04E2D5F2D602F712F89E33B
:1005600091E00E9457096BE970E089E391E00E94F5
:10057000A5074AE050E06FA189E391E00E9441089D
:100580004AE050E068A589E391E00E94480842E013
:1005900050E068A589E391E00E94480842E050E0FD
:1005A0006FA189E391E00E94480868A58FA16823A4
:1005B00070E080E090E00E94410C2DEC3CEC4CECB3
:1005C00053E40E94A60BAB01BC0122E030E089E3BA
:1005D00091E00E94570965EA70E089E391E00E948A
:1005E000A50762EB70E089E391E00E94A50740E176
:1005F00050E069A589E391E00E94480866EC70E04C
:1006000089E391E00E94A5076EEC70E089E391E038
:100610000E94A50742E050E06E8D89E391E00E94C0
:10062000480865ED70E089E391E00E94A50742E08B
:1006300050E06F8D89E391E00E94480861EE70E020
:1006400089E391E00E94A50742E050E068A189E3B8
:1006500091E00E9448086DEE70E089E391E00E940D
:10066000A5074AE050E06D8D89E391E00E944108C2
:1006700064EF70E089E391E00E94A5074AE050E052
:100680006C8D89E391E00E94410864EF70E089E39A
:1006900091E00E94A5074AE050E06B8D89E391E06C
:1006A0000E94410864EF70E089E391E00E94A50791
:1006B0004AE050E06A8D89E391E00E94410889E3B5
:1006C00091E00E94AE0766EF70E089E391E00E943E
:1006D000A5074AE050E06D8989E391E00E94410856
:1006E00064EF70E089E391E00E94A5074AE050E0E2
:1006F0006C8989E391E00E94410864EF70E089E32E
:1007000091E00E94A5074AE050E06B8989E391E0FF
:100710000E94410864EF70E089E391E00E94A50720
:100720004AE050E06A8989E391E00E94410889E348
:1007300091E00E94AE076DEF70E089E391E00E94C6
:10074000A5074AE050E0698D89E391E00E944108E5
:1007500064EF70E089E391E00E94A5074AE050E071
:10076000688D89E391E00E94410864EF70E089E3BD
:1007700091E00E94A5074AE050E06F8989E391E08B
:100780000E94410864EF70E089E391E00E94A507B0
:100790004AE050E06E8989E391E00E94410889E3D4
:1007A00091E00E94AE0789E391E00E94AE0764E009
:1007B00071E089E391E00E94A5074AE050E06E8570
:1007C00089E391E00E9441084AE050E06F8589E3A7
:1007D00091E00E9448086AE071E089E391E00E949C
:1007E000A5074AE050E0688989E391E00E9441084A
:1007F0004AE050E0698989E391E00E94480889E372
:1008000091E00E94AE0760E177E280E090E00E9414
:100810009004A9960FB6F894DEBF0FBECDBFDF914E
:10082000CF911F910F91FF90EF9008956FE082E2BA
:1008300091E00C948D0A1F920F920FB60F92112423
:100840002F933F938F939F93AF93BF9380913001EA
:1008500090913101A0913201B09133013091380172
:10086000232F2A5F2D3720F40296A11DB11D05C04C
:10087000232F27570396A11DB11D20933801809384
:10088000300190933101A0933201B09333018091F4
:10089000340190913501A0913601B0913701019654
:1008A000A11DB11D8093340190933501A0933601B1
:1008B000B0933701BF91AF919F918F913F912F914D
:1008C0000F900FBE0F901F9018950F931F939FB717
:1008D000F894009134011091350120913601309146
:1008E000370182B708B600FE06C08F3F21F00F5FC8
:1008F0001F4F2F4F3F4F9FBF322F212F102F002709
:10090000080F111D211D311D43E0000F111F221F73
:10091000331F4A95D1F7B801C9011F910F9108956E
:10092000CF92DF92EF92FF92CF93DF936B017C0126
:100930000E946504EB010EC00E9465046C1B7D0BD8
:10094000683E734038F081E0C81AD108E108F10828
:10095000C851DC4FC114D104E104F10469F7DF91FF
:10096000CF91FF90EF90DF90CF900895019739F0ED
:10097000019729F0880F991F01970197F1F70895C2
:10098000789483B7826083BF83B7816083BF89B760
:10099000816089BF1EBC8EB582608EBD8EB58160C0
:1009A0008EBD8FB581608FBD85B5846085BD85B5F1
:1009B000806485BD329A319A309A379A1AB8089570
:1009C000843039F0853049F0833051F48FB58F771A
:1009D00002C08FB58F7D8FBD089585B58F7D85BD94
:1009E0000895CF93DF9390E0FC01EC58FF4F4491C2
:1009F000FC01EC56FF4F8491882341F190E0880F71
:100A0000991FFC01E853FF4F25913491D90182547D
:100A10009F4FFC0185919491C82FD92F9FB7F894CF
:100A20008C91611106C0409584238C938881842326
:100A300008C0623041F4242F209582238C93888152
:100A4000842B888302C0842B8C939FBFDF91CF912E
:100A500008950F931F93CF93DF931F92CDB7DEB707
:100A6000282F30E0F901EC5AFF4F8491F901EC583E
:100A7000FF4F1491F901EC56FF4F04910023D1F080
:100A8000882321F069830E94E0046981E02FF0E06F
:100A9000EE0FFF1FE254FF4F85919491DC019FB749
:100AA000F8948C91611103C01095812301C0812BB2
:100AB0008C939FBF0F90DF91CF911F910F9108955D
:100AC000CF93DF93282F30E0F901EC5AFF4F849148
:100AD000F901EC58FF4FD491F901EC56FF4FC49146
:100AE000CC2389F081110E94E004EC2FF0E0EE0F9E
:100AF000FF1FEC54FF4F85919491DC018C918D2365
:100B000021E030E011F420E030E0C901DF91CF9125
:100B10000895FC0184859585FC01E05CFF4F2081F0
:100B20003181FC01EE5BFF4F80819181281B390BE5
:100B30002F733327C9010895FC0184859585FC0135
:100B4000E05CFF4F40815181FC01EE5BFF4F208153
:100B500031814217530741F00190F081E02DE80FF9
:100B6000F91F208130E002C02FEF3FEFC901089547
:100B7000FC0184859585FC01E05CFF4F408151813B
:100B8000FC01EE5BFF4F208131814217530781F05A
:100B9000A081B181A80FB91F8C91208131812F5F75
:100BA0003F4F2F73332731832083282F30E002C03B
:100BB0002FEF3FEFC9010895FC0186859785FC0161
:100BC000E05CFF4FDC01AE5BBF4F408151812D9156
:100BD0003C91119742175307C1F70895CF93DF93C4
:100BE000FC0186859785DC01A05CBF4F2D913C916F
:100BF00011972F5F3F4F2F733327EC01CE5BDF4FF1
:100C00004881598124173507D9F30D90BC91A02D47
:100C1000A80FB91F6C93A685B785A05CBF4F11962E
:100C20003C932E93A689B7892C9181E090E0058CA6
:100C300002C0880F991F0A94E2F7282B2C9381E0B9
:100C400090E0DF91CF91089508951F920F920FB613
:100C50000F9211242F933F934F938F939F93EF9372
:100C6000FF934CB18091DC019091DD0101968F736F
:100C700099272091DE013091DF018217930759F007
:100C8000E091DC01F091DD01E456FE4F408390934A
:100C9000DD018093DC01FF91EF919F918F914F9146
:100CA0003F912F910F900FBE0F901F90189589E3E1
:100CB00091E00E948905892B11F00C942406089577
:100CC0001F920F920FB60F9211242F933F938F9381
:100CD0009F93EF93FF932091980130919901809118
:100CE0009A0190919B012817390711F4559813C068
:100CF000E0919A01F0919B01E85AFE4F208180918A
:100D00009A0190919B0101968F73992790939B0173
:100D100080939A012CB9FF91EF919F918F913F9110
:100D20002F910F900FBE0F901F901895CF92DF92CA
:100D3000EF92FF92CF93DF93EC016A017B01EC8984
:100D4000FD8981E090E00E8C02C0880F991F0A9403
:100D5000E2F7808360E874E88EE190E0A7019601F5
:100D60000E94540D2150310941095109569547956A
:100D700037952795211580E1380798F0EC89FD8992
:100D8000108260E472E48FE090E0A70196010E9477
:100D9000540D215031094109510956954795379510
:100DA0002795E889F9893083EA89FB892083EE89D0
:100DB000FF89408181E090E09C010A8C02C0220FF3
:100DC000331F0A94E2F7422B4083EE89FF8940816A
:100DD0009C010B8C02C0220F331F0A94E2F7422BB6
:100DE0004083EE89FF8940819C010C8C02C0220F58
:100DF000331F0A94E2F7422B4083EE89FF8920815A
:100E00000D8C02C0880F991F0A94E2F78095822307
:100E10008083DF91CF91FF90EF90DF90CF90089586
:100E200010923C0110923B0188EE93E0A0E0B0E00C
:100E300080933D0190933E01A0933F01B093400108
:100E400084E191E090933A01809339018CE991E03B
:100E5000909346018093450188E591E09093480185
:100E60008093470180E490E090934A018093490188
:100E700089E290E090934C0180934B018BE290E0EB
:100E800090934E0180934D018AE290E0909350013F
:100E900080934F018CE290E0909352018093510136
:100EA00084E08093530183E08093540187E0809332
:100EB000550185E08093560181E0809357010895A4
:100EC0000E94C0040E94C700C7E5D6E00E94E70068
:100ED0002097E1F30E945706F9CFCF92DF92EF926D
:100EE000FF920F931F93CF93DF936C01EB017A0175
:100EF000E60EF71E00E010E00BC06991D601ED91FF
:100F0000FC910190F081E02DC6010995080F191F91
:100F1000CE15DF0591F7C801DF91CF911F910F9199
:100F2000FF90EF90DF90CF900895DB010D900020AF
:100F3000E9F7AD0141505109461B570BDC01ED911A
:100F4000FC910280F381E02D09940C949507DC015B
:100F5000ED91FC910190F081E02D09940F931F9386
:100F6000CF93DF93EC016DE00E94A7078C016AE04C
:100F7000CE010E94A7079C01200F311FC901DF91FC
:100F8000CF911F910F9108950F931F93CF93DF93EC
:100F9000EC010E9495078C01CE010E94AE079801DA
:100FA000280F391FC901DF91CF911F910F9108952B
:100FB0004F925F926F927F929F92AF92BF92CF9229
:100FC000DF92EF92FF920F931F93CF93DF93CDB7F2
:100FD000DEB7A1970FB6F894DEBF0FBECDBF5C01A0
:100FE0006A017B01922E19A281E0821710F08AE03B
:100FF000982E8E010F5D1F4F492C512C612C712CA6
:10100000C701B601A30192010E94540D8C2D929E3E
:1010100080191124015011098A3014F4805D01C037
:10102000895CF801808369017A01C114D104E1046B
:10103000F10431F7B801C5010E949507A1960FB6DA
:10104000F894DEBF0FBECDBFDF91CF911F910F91FE
:10105000FF90EF90DF90CF90BF90AF909F907F90E8
:101060006F905F904F9008952115310541F4DC0198
:10107000ED91FC910190F081E02D642F09940C9486
:10108000D8079A01462F50E060E070E00C943408D5
:101090000F931F93CF93DF93EC019A01462F50E0FB
:1010A00060E070E00E9434088C01CE010E94AE071F
:1010B0009801280F391FC901DF91CF911F910F911E
:1010C0000895CF92DF92EF92FF920F931F93CF93E9
:1010D000DF93EC016A017B012115310579F4E88188
:1010E000F9810190F081E02D642FDF91CF911F9164
:1010F0000F91FF90EF90DF90CF9009942A30310547
:1011000019F477FD0EC02AE0B701A601CE01DF91E8
:10111000CF911F910F91FF90EF90DF90CF900C94A3
:10112000D8076DE20E94A7078C0144275527BA0112
:101130004C195D096E097F092AE0CE010E94D8078B
:10114000080F191FC801DF91CF911F910F91FF90D8
:10115000EF90DF90CF9008957F928F929F92AF9201
:10116000BF92CF92DF92EF92FF920F931F93CF9394
:10117000DF938C014A015B01F22E20E030E0A901EF
:10118000C501B4010E94A20B87FF0AC06DE2C8012D
:101190000E94A707EC01B7FAB094B7F8B09402C068
:1011A000C0E0D0E0E12C60E070E080E09FE307C0A9
:1011B00020E030E040E251E40E94A60BE394EF10FF
:1011C000F7CF262F372F482F592FC501B4010E9482
:1011D0003E0B762E872E982EA92E0E94130CB62E2B
:1011E000C72ED82EE92E0E943F0C9B01AC01672D23
:1011F000782D892D9A2D0E943D0BA62E972E882E94
:10120000792E2AE04B2D5C2D6D2D7E2DC8010E947C
:10121000D807C80FD91FFF20B9F16AE670E0C801EE
:101220000E949507C80FD91F2FC020E030E040E290
:1012300051E46A2D792D882D972D0E94F10C762E80
:10124000C72ED82EE92E0E940E0C4B01AA2497FC23
:10125000A094BA2C2AE030E0B501A401C8010E9494
:101260006108C80FD91FC501B4010E94410C9B0140
:10127000AC01672D7C2D8D2D9E2D0E943D0BA62E41
:10128000972E882E792EFA94F110CFCFCE01DF91D0
:10129000CF911F910F91FF90EF90DF90CF90BF9073
:1012A000AF909F908F907F9008950C94AC080F930F
:1012B0001F93CF93DF93EC010E94AC088C01CE0109
:1012C0000E94AE079801280F391FC901DF91CF9105
:1012D0001F910F910895FF920F931F93CF93DF9368
:1012E000FC011081C181D281F8948981012F009580
:1012F0008023898378948DE7F82EFA9431F182E087
:1013000090E00E94B60488818123B9F3F8948A8121
:1013100080238A838981812B8983789480EE91E070
:101320000E94B604F89489818023898386E490E042
:101330000E94B60488818123C1E009F0C0E078945E
:101340008AE991E00E94B60401C0C0E08C2FDF91D1
:10135000CF911F910F91FF9008951F93CF93DF932B
:10136000FC011081C181D281912F9095F8948A81DE
:1013700089238A838981812B898360FF0BC08AE05E
:1013800090E00E94B6048A81812B8A83789487E357
:1013900090E00AC081E490E00E94B6048A81812B2B
:1013A0008A83789485E090E0DF91CF911F910C942F
:1013B000B6040F931F93CF93DF93FC011081C1817B
:1013C000D281F8948981812B89838A81012F0095AC
:1013D00080238A8383E090E00E94B6048981802381
:1013E00089838AE090E00E94B604C881789485E3FE
:1013F00090E00E94B6041C2381E009F480E0DF91B4
:10140000CF911F910F910895CF92DF92EF92FF92AB
:101410000F931F93CF93DF931F92CDB7DEB76C016D
:10142000E62E08E010E0FF24F3949F2D9E2161E05A
:1014300009F460E0C60149830E94AD09FF0C015028
:10144000110949810115110581F7411115C0F89461
:10145000D6011196ED91FC91129791818C91809516
:10146000892381831196ED91FC91129792818C9141
:1014700080958923828378940F90DF91CF911F917B
:101480000F91FF90EF90DF90CF900895EF92FF9231
:101490000F931F93CF93DF938C01C8E0D0E0F12C22
:1014A000EE24E394C8010E94D9098111FE28EE0CB4
:1014B0002197C1F78F2DDF91CF911F910F91FF9051
:1014C000EF900895EF92FF920F931F93CF93DF93C6
:1014D0007C018A01EB01060F171F04C0C7010E949F
:1014E000460A8993C017D107C9F7DF91CF911F91A1
:1014F0000F91FF90EF90089540E06CEC0C94040A7B
:10150000FC011386158614861286118610861782B2
:10151000168215821482138208951F93CF93DF934E
:10152000EC01162F60E0812F0E94F104612F70E022
:10153000FB01EC58FF4FE491E883FB01EC56FF4FB1
:10154000E491F0E0EE0FFF1FEC54FF4F8591949172
:1015500089839A83CE01DF91CF911F910C94800AE9
:10156000BF92CF92DF92EF92FF920F931F93CF9390
:10157000DF93EC01C62EB72E8D85811156C0CE01AA
:101580000E946B09811104C01B861D861C8668C0E1
:1015900040E060EFCE010E94040A01E0F12CE12C52
:1015A00011E0CE010E94D909D82ECE010E94D9099E
:1015B00091E0D91203C08130A1F42FC0D81219C014
:1015C0008B85181738F4FE01EF0DF11D8381802300
:1015D00041F402C0181729F060E01930D0F51C87DB
:1015E00038C0FE01EF0DF11D8381802B838361E004
:1015F00009C06D2DFE01EF0DF11D202F2095938167
:1016000092239383CE010E94AD091F5F000F11F456
:10161000F39401E087E08F1520F6113430F0EB866B
:10162000E11019C081E08D8716C01B861D861C86BF
:1016300080E0EC2DFB2D20E030E0DE01A20FB31F97
:1016400013969C9191932F5F3F4F28303105A9F756
:1016500007C0E12ECFCF8B81882339F381E0E9CF1A
:10166000DF91CF911F910F91FF90EF90DF90CF907E
:10167000BF900895F8940C947C0D5058BB27AA276E
:101680000ED075C166D130F06BD120F031F49F3FA0
:1016900011F41EF45BC10EF4E095E7FB51C1E92F94
:1016A00077D180F3BA17620773078407950718F09C
:1016B00071F49EF58FC10EF4E0950B2EBA2FA02D7C
:1016C0000B01B90190010C01CA01A0011124FF27EF
:1016D000591B99F0593F50F4503E68F11A16F040EA
:1016E000A22F232F342F4427585FF3CF46953795E9
:1016F0002795A795F0405395C9F77EF41F16BA0BAE
:10170000620B730B840BBAF09150A1F0FF0FBB1F5B
:10171000661F771F881FC2F70EC0BA0F621F731FA4
:10172000841F48F4879577956795B795F7959E3F01
:1017300008F0B3CF9395880F08F09927EE0F97958F
:1017400087950895D9D008F481E008950CD00FC191
:1017500007D140F0FED030F021F45F3F19F0F0C027
:10176000511139C1F3C014D198F39923C9F355230A
:10177000B1F3951B550BBB27AA2762177307840784
:1017800038F09F5F5F4F220F331F441FAA1FA9F33A
:1017900033D00E2E3AF0E0E830D091505040E6952C
:1017A000001CCAF729D0FE2F27D0660F771F881F8D
:1017B000BB1F261737074807AB07B0E809F0BB0B7C
:1017C000802DBF01FF2793585F4F2AF09E3F5105A0
:1017D00068F0B6C000C15F3FECF3983EDCF386953D
:1017E00077956795B795F7959F5FC9F7880F911D16
:1017F0009695879597F90895E1E0660F771F881F02
:10180000BB1F621773078407BA0720F0621B730BB4
:10181000840BBA0BEE1F88F7E095089504D0689406
:10182000B111D9C00895BCD088F09F5790F0B92F5E
:101830009927B751A0F0D1F0660F771F881F991F25
:101840001AF0BA95C9F712C0B13081F0C3D0B1E037
:101850000895C0C0672F782F8827B85F39F0B93F47
:10186000CCF3869577956795B395D9F73EF4909527
:101870008095709561957F4F8F4F9F4F0895E894A5
:1018800009C097FB3EF490958095709561957F4FC8
:101890008F4F9F4F9923A9F0F92F96E9BB27939576
:1018A000F695879577956795B795F111F8CFFAF486
:1018B000BB0F11F460FF1BC06F5F7F4F8F4F9F4FB7
:1018C00016C0882311F096E911C0772321F09EE815
:1018D000872F762F05C0662371F096E8862F70E07B
:1018E00060E02AF09A95660F771F881FDAF7880F55
:1018F0009695879597F90895990F0008550FAA0BAB
:10190000E0E8FEEF16161706E807F907C0F0121612
:101910001306E407F50798F0621B730B840B950B15
:1019200039F40A2661F0232B242B252B21F408956A
:101930000A2609F4A140A6958FEF811D811D089507
:1019400097F99F6780E870E060E008959FEF80EC72
:10195000089500240A941616170618060906089515
:1019600000240A9412161306140605060895092E7B
:101970000394000C11F4882352F0BB0F40F4BF2BEA
:1019800011F460FF04C06F5F7F4F8F4F9F4F08952A
:1019900057FD9058440F551F59F05F3F71F0479520
:1019A000880F97FB991F61F09F3F79F08795089505
:1019B000121613061406551FF2CF4695F1DF08C024
:1019C000161617061806991FF1CF86957105610541
:1019D00008940895E894BB2766277727CB0197F9E9
:1019E00008950BD0C4CFB5DF28F0BADF18F09523E7
:1019F00009F0A6CFABCF1124EECFCADFA0F3959F9D
:101A0000D1F3950F50E0551F629FF001729FBB27E5
:101A1000F00DB11D639FAA27F00DB11DAA1F649F91
:101A20006627B00DA11D661F829F2227B00DA11D44
:101A3000621F739FB00DA11D621F839FA00D611DCA
:101A4000221F749F3327A00D611D231F849F600DEB
:101A5000211D822F762F6A2F11249F5750408AF024
:101A6000E1F088234AF0EE0FFF1FBB1F661F771FB0
:101A7000881F91505040A9F79E3F510570F060CFEC
:101A8000AACF5F3FECF3983EDCF386957795679598
:101A9000B795F795E7959F5FC1F7FE2B880F911DCE
:101AA0009695879597F90895A1E21A2EAA1BBB1B5C
:101AB000FD010DC0AA1FBB1FEE1FFF1FA217B3071A
:101AC000E407F50720F0A21BB30BE40BF50B661F30
:101AD000771F881F991F1A9469F7609570958095F4
:101AE00090959B01AC01BD01CF010895EE0FFF1F42
:0C1AF0000590F491E02D0994F894FFCFCC
:101AFC005374617274696E672E2E2E00466F756E6C
:101B0C006420005265616420005374617475733AEB
:101B1C00200054656D70657261747572653A2000B1
:101B2C0020566F6C746167653A200043757272655C
:101B3C006E743A20005472616E736C617465643A11
:101B4C00200043757272656E7420546872657368F8
:101B5C006F6C643A20005061676520312000204989
:101B6C0043413A2000204F666673657420313A2059
:101B7C0000204F666673657420323A200054696DFC
:101B8C00653A20003A00444653543A2000454F43EE
:101B9C00543A20004343413A20004443413A200048
:101BAC0000000000EE056D078905B8059C05DC05F5
:00000001FF
